:020000040800F2
:10000000175100181301010017050000130505130F
:1000100097050018938505FF17060018130646FF7D
:1000200063FCC5008322050023A05500130545008D
:1000300093854500E3E8C5FE17050018130545FD47
:1000400097050018938585FD6378B500232005008A
:1000500013054500E36CB5FE130500009305000091
:08006000EF0080006F000000BA
:10006800130101FF23261100B70700209387C7005B
:100078001307400123A0E7003707002003270700E4
:1000880023A2E700B707002083A687009307100084
:1000980063DCD7003307F70093871700E39CD7FE8C
:1000A800B707002023A0E700B707002003A64700F2
:1000B800B707002083A5070013056014EF00C005EB
:1000C8001305C5FE8320C1001301010167800000EC
:1000D8009307B002638EF5009307D002638AF50296
:1000E80093951500B707002023AAB7006F004001B9
:1000F8003707002083278700938727002324F700EA
:10010800B707002083A787003305F5006780000044
:100118001305D5FF6FF0DFFE6348B500B707002071
:1001280003A54701678000001305001067800000E1
:0C0138000C01000000C072C23C0000007E
:0400000508000000EF
:00000001FF
